{
  "_format": "hh-sol-artifact-1",
  "contractName": "LuregasToken",
  "sourceName": "contracts/Token.sol",
  "abi": [
    {
      "inputs": [
        {
          "internalType": "uint256",
          "name": "cap",
          "type": "uint256"
        }
      ],
      "stateMutability": "nonpayable",
      "type": "constructor"
    },
    {
      "anonymous": false,
      "inputs": [
        {
          "indexed": true,
          "internalType": "address",
          "name": "owner",
          "type": "address"
        },
        {
          "indexed": true,
          "internalType": "address",
          "name": "spender",
          "type": "address"
        },
        {
          "indexed": false,
          "internalType": "uint256",
          "name": "value",
          "type": "uint256"
        }
      ],
      "name": "Approval",
      "type": "event"
    },
    {
      "anonymous": false,
      "inputs": [
        {
          "indexed": true,
          "internalType": "address",
          "name": "newMinter",
          "type": "address"
        }
      ],
      "name": "EventMinterAdded",
      "type": "event"
    },
    {
      "anonymous": false,
      "inputs": [
        {
          "indexed": true,
          "internalType": "address",
          "name": "oldMinter",
          "type": "address"
        }
      ],
      "name": "EventMinterRemoved",
      "type": "event"
    },
    {
      "anonymous": false,
      "inputs": [
        {
          "indexed": true,
          "internalType": "address",
          "name": "previousOwner",
          "type": "address"
        },
        {
          "indexed": true,
          "internalType": "address",
          "name": "newOwner",
          "type": "address"
        }
      ],
      "name": "OwnershipTransferred",
      "type": "event"
    },
    {
      "anonymous": false,
      "inputs": [
        {
          "indexed": true,
          "internalType": "address",
          "name": "from",
          "type": "address"
        },
        {
          "indexed": true,
          "internalType": "address",
          "name": "to",
          "type": "address"
        },
        {
          "indexed": false,
          "internalType": "uint256",
          "name": "value",
          "type": "uint256"
        }
      ],
      "name": "Transfer",
      "type": "event"
    },
    {
      "anonymous": false,
      "inputs": [
        {
          "indexed": true,
          "internalType": "address",
          "name": "user",
          "type": "address"
        },
        {
          "indexed": false,
          "internalType": "uint256",
          "name": "amount",
          "type": "uint256"
        },
        {
          "indexed": false,
          "internalType": "uint256",
          "name": "duration",
          "type": "uint256"
        },
        {
          "indexed": false,
          "internalType": "uint256",
          "name": "rewardRate",
          "type": "uint256"
        }
      ],
      "name": "claimed",
      "type": "event"
    },
    {
      "anonymous": false,
      "inputs": [
        {
          "indexed": true,
          "internalType": "address",
          "name": "user",
          "type": "address"
        },
        {
          "indexed": false,
          "internalType": "uint256",
          "name": "amount",
          "type": "uint256"
        },
        {
          "indexed": false,
          "internalType": "uint256",
          "name": "duration",
          "type": "uint256"
        },
        {
          "indexed": false,
          "internalType": "uint256",
          "name": "rewardRate",
          "type": "uint256"
        }
      ],
      "name": "staked",
      "type": "event"
    },
    {
      "anonymous": false,
      "inputs": [
        {
          "indexed": true,
          "internalType": "address",
          "name": "user",
          "type": "address"
        },
        {
          "indexed": false,
          "internalType": "uint256",
          "name": "amount",
          "type": "uint256"
        },
        {
          "indexed": false,
          "internalType": "uint256",
          "name": "duration",
          "type": "uint256"
        },
        {
          "indexed": false,
          "internalType": "uint256",
          "name": "rewardRate",
          "type": "uint256"
        }
      ],
      "name": "unstaked",
      "type": "event"
    },
    {
      "inputs": [
        {
          "internalType": "address",
          "name": "minter",
          "type": "address"
        }
      ],
      "name": "addMinter",
      "outputs": [],
      "stateMutability": "nonpayable",
      "type": "function"
    },
    {
      "inputs": [
        {
          "internalType": "address",
          "name": "owner",
          "type": "address"
        },
        {
          "internalType": "address",
          "name": "spender",
          "type": "address"
        }
      ],
      "name": "allowance",
      "outputs": [
        {
          "internalType": "uint256",
          "name": "",
          "type": "uint256"
        }
      ],
      "stateMutability": "view",
      "type": "function"
    },
    {
      "inputs": [
        {
          "internalType": "address",
          "name": "spender",
          "type": "address"
        },
        {
          "internalType": "uint256",
          "name": "amount",
          "type": "uint256"
        }
      ],
      "name": "approve",
      "outputs": [
        {
          "internalType": "bool",
          "name": "",
          "type": "bool"
        }
      ],
      "stateMutability": "nonpayable",
      "type": "function"
    },
    {
      "inputs": [
        {
          "internalType": "address",
          "name": "account",
          "type": "address"
        }
      ],
      "name": "balanceOf",
      "outputs": [
        {
          "internalType": "uint256",
          "name": "",
          "type": "uint256"
        }
      ],
      "stateMutability": "view",
      "type": "function"
    },
    {
      "inputs": [
        {
          "internalType": "address",
          "name": "_address",
          "type": "address"
        },
        {
          "internalType": "uint256",
          "name": "_duration",
          "type": "uint256"
        }
      ],
      "name": "calculateReward",
      "outputs": [
        {
          "internalType": "uint256",
          "name": "",
          "type": "uint256"
        }
      ],
      "stateMutability": "view",
      "type": "function"
    },
    {
      "inputs": [],
      "name": "cap",
      "outputs": [
        {
          "internalType": "uint256",
          "name": "",
          "type": "uint256"
        }
      ],
      "stateMutability": "view",
      "type": "function"
    },
    {
      "inputs": [
        {
          "internalType": "uint256",
          "name": "_duration",
          "type": "uint256"
        }
      ],
      "name": "claimReward",
      "outputs": [],
      "stateMutability": "nonpayable",
      "type": "function"
    },
    {
      "inputs": [
        {
          "internalType": "uint256",
          "name": "_amount",
          "type": "uint256"
        },
        {
          "internalType": "uint256",
          "name": "_duration",
          "type": "uint256"
        },
        {
          "internalType": "uint256",
          "name": "_rewardRate",
          "type": "uint256"
        }
      ],
      "name": "createStake",
      "outputs": [],
      "stateMutability": "nonpayable",
      "type": "function"
    },
    {
      "inputs": [],
      "name": "decimals",
      "outputs": [
        {
          "internalType": "uint8",
          "name": "",
          "type": "uint8"
        }
      ],
      "stateMutability": "view",
      "type": "function"
    },
    {
      "inputs": [
        {
          "internalType": "address",
          "name": "spender",
          "type": "address"
        },
        {
          "internalType": "uint256",
          "name": "subtractedValue",
          "type": "uint256"
        }
      ],
      "name": "decreaseAllowance",
      "outputs": [
        {
          "internalType": "bool",
          "name": "",
          "type": "bool"
        }
      ],
      "stateMutability": "nonpayable",
      "type": "function"
    },
    {
      "inputs": [
        {
          "internalType": "uint256",
          "name": "_duration",
          "type": "uint256"
        }
      ],
      "name": "getStakingInfo",
      "outputs": [
        {
          "components": [
            {
              "internalType": "uint256",
              "name": "amount",
              "type": "uint256"
            },
            {
              "internalType": "uint256",
              "name": "startTime",
              "type": "uint256"
            },
            {
              "internalType": "uint256",
              "name": "rewardRate",
              "type": "uint256"
            }
          ],
          "internalType": "struct LuregasToken.StakingInfo",
          "name": "",
          "type": "tuple"
        }
      ],
      "stateMutability": "view",
      "type": "function"
    },
    {
      "inputs": [
        {
          "internalType": "address",
          "name": "spender",
          "type": "address"
        },
        {
          "internalType": "uint256",
          "name": "addedValue",
          "type": "uint256"
        }
      ],
      "name": "increaseAllowance",
      "outputs": [
        {
          "internalType": "bool",
          "name": "",
          "type": "bool"
        }
      ],
      "stateMutability": "nonpayable",
      "type": "function"
    },
    {
      "inputs": [
        {
          "internalType": "address",
          "name": "account",
          "type": "address"
        }
      ],
      "name": "isMinter",
      "outputs": [
        {
          "internalType": "bool",
          "name": "",
          "type": "bool"
        }
      ],
      "stateMutability": "view",
      "type": "function"
    },
    {
      "inputs": [
        {
          "internalType": "address",
          "name": "_address",
          "type": "address"
        },
        {
          "internalType": "uint256",
          "name": "_duration",
          "type": "uint256"
        }
      ],
      "name": "isStaking",
      "outputs": [
        {
          "internalType": "bool",
          "name": "",
          "type": "bool"
        }
      ],
      "stateMutability": "view",
      "type": "function"
    },
    {
      "inputs": [
        {
          "internalType": "address",
          "name": "account",
          "type": "address"
        },
        {
          "internalType": "uint256",
          "name": "amount",
          "type": "uint256"
        }
      ],
      "name": "mintByMinter",
      "outputs": [],
      "stateMutability": "nonpayable",
      "type": "function"
    },
    {
      "inputs": [],
      "name": "name",
      "outputs": [
        {
          "internalType": "string",
          "name": "",
          "type": "string"
        }
      ],
      "stateMutability": "view",
      "type": "function"
    },
    {
      "inputs": [],
      "name": "owner",
      "outputs": [
        {
          "internalType": "address",
          "name": "",
          "type": "address"
        }
      ],
      "stateMutability": "view",
      "type": "function"
    },
    {
      "inputs": [
        {
          "internalType": "address",
          "name": "minter",
          "type": "address"
        }
      ],
      "name": "removeMinter",
      "outputs": [],
      "stateMutability": "nonpayable",
      "type": "function"
    },
    {
      "inputs": [],
      "name": "renounceOwnership",
      "outputs": [],
      "stateMutability": "nonpayable",
      "type": "function"
    },
    {
      "inputs": [],
      "name": "symbol",
      "outputs": [
        {
          "internalType": "string",
          "name": "",
          "type": "string"
        }
      ],
      "stateMutability": "view",
      "type": "function"
    },
    {
      "inputs": [],
      "name": "totalSupply",
      "outputs": [
        {
          "internalType": "uint256",
          "name": "",
          "type": "uint256"
        }
      ],
      "stateMutability": "view",
      "type": "function"
    },
    {
      "inputs": [
        {
          "internalType": "address",
          "name": "account",
          "type": "address"
        },
        {
          "internalType": "uint256",
          "name": "amount",
          "type": "uint256"
        }
      ],
      "name": "transfer",
      "outputs": [
        {
          "internalType": "bool",
          "name": "",
          "type": "bool"
        }
      ],
      "stateMutability": "nonpayable",
      "type": "function"
    },
    {
      "inputs": [
        {
          "internalType": "address",
          "name": "from",
          "type": "address"
        },
        {
          "internalType": "address",
          "name": "to",
          "type": "address"
        },
        {
          "internalType": "uint256",
          "name": "amount",
          "type": "uint256"
        }
      ],
      "name": "transferFrom",
      "outputs": [
        {
          "internalType": "bool",
          "name": "",
          "type": "bool"
        }
      ],
      "stateMutability": "nonpayable",
      "type": "function"
    },
    {
      "inputs": [
        {
          "internalType": "address",
          "name": "newOwner",
          "type": "address"
        }
      ],
      "name": "transferOwnership",
      "outputs": [],
      "stateMutability": "nonpayable",
      "type": "function"
    },
    {
      "inputs": [
        {
          "internalType": "uint256",
          "name": "_duration",
          "type": "uint256"
        }
      ],
      "name": "unstake",
      "outputs": [],
      "stateMutability": "nonpayable",
      "type": "function"
    }
  ],
  "bytecode": "0x60a06040523480156200001157600080fd5b5060405162003ca238038062003ca28339818101604052810190620000379190620005b3565b62000047620001b460201b60201c565b600a62000055919062000775565b81620000629190620007c6565b6040518060400160405280600d81526020017f4c75726567617320546f6b656e000000000000000000000000000000000000008152506040518060400160405280600381526020017f4c475400000000000000000000000000000000000000000000000000000000008152508160039080519060200190620000e6929190620004c3565b508060049080519060200190620000ff929190620004c3565b5050506000811162000148576040517f08c379a00000000000000000000000000000000000000000000000000000000081526004016200013f9062000888565b60405180910390fd5b8060808181525050506200017162000165620001bd60201b60201c565b620001c560201b60201c565b620001ad3362000186620001b460201b60201c565b600a62000194919062000775565b83620001a19190620007c6565b6200028b60201b60201c565b5062000a7e565b60006012905090565b600033905090565b6000600560009054906101000a900473ffffffffffffffffffffffffffffffffffffffff16905081600560006101000a81548173ffffffffffffffffffffffffffffffffffffffff021916908373ffffffffffffffffffffffffffffffffffffffff1602179055508173ffffffffffffffffffffffffffffffffffffffff168173ffffffffffffffffffffffffffffffffffffffff167f8be0079c531659141344cd1fd0a4f28419497f9722a3daafe3b4186f6b6457e060405160405180910390a35050565b620002a28282620002a660201b620015af1760201c565b5050565b620002b66200033760201b60201c565b81620002cc6200034160201b620005bf1760201c565b620002d89190620008aa565b11156200031c576040517f08c379a0000000000000000000000000000000000000000000000000000000008152600401620003139062000957565b60405180910390fd5b6200033382826200034b60201b620016191760201c565b5050565b6000608051905090565b6000600254905090565b600073ffffffffffffffffffffffffffffffffffffffff168273ffffffffffffffffffffffffffffffffffffffff161415620003be576040517f08c379a0000000000000000000000000000000000000000000000000000000008152600401620003b590620009c9565b60405180910390fd5b620003d260008383620004b960201b60201c565b8060026000828254620003e69190620008aa565b92505081905550806000808473ffffffffffffffffffffffffffffffffffffffff1673ffffffffffffffffffffffffffffffffffffffff168152602001908152602001600020600082825401925050819055508173ffffffffffffffffffffffffffffffffffffffff16600073ffffffffffffffffffffffffffffffffffffffff167fddf252ad1be2c89b69c2b068fc378daa952ba7f163c4a11628f55a4df523b3ef83604051620004999190620009fc565b60405180910390a3620004b560008383620004be60201b60201c565b5050565b505050565b505050565b828054620004d19062000a48565b90600052602060002090601f016020900481019282620004f5576000855562000541565b82601f106200051057805160ff191683800117855562000541565b8280016001018555821562000541579182015b828111156200054057825182559160200191906001019062000523565b5b50905062000550919062000554565b5090565b5b808211156200056f57600081600090555060010162000555565b5090565b600080fd5b6000819050919050565b6200058d8162000578565b81146200059957600080fd5b50565b600081519050620005ad8162000582565b92915050565b600060208284031215620005cc57620005cb62000573565b5b6000620005dc848285016200059c565b91505092915050565b7f4e487b7100000000000000000000000000000000000000000000000000000000600052601160045260246000fd5b60008160011c9050919050565b6000808291508390505b600185111562000673578086048111156200064b576200064a620005e5565b5b60018516156200065b5780820291505b80810290506200066b8562000614565b94506200062b565b94509492505050565b6000826200068e576001905062000761565b816200069e576000905062000761565b8160018114620006b75760028114620006c257620006f8565b600191505062000761565b60ff841115620006d757620006d6620005e5565b5b8360020a915084821115620006f157620006f0620005e5565b5b5062000761565b5060208310610133831016604e8410600b8410161715620007325782820a9050838111156200072c576200072b620005e5565b5b62000761565b62000741848484600162000621565b925090508184048111156200075b576200075a620005e5565b5b81810290505b9392505050565b600060ff82169050919050565b6000620007828262000578565b91506200078f8362000768565b9250620007be7fffffffffffffffffffffffffffffffffffffffffffffffffffffffffffffffff84846200067c565b905092915050565b6000620007d38262000578565b9150620007e08362000578565b9250817fffffffffffffffffffffffffffffffffffffffffffffffffffffffffffffffff04831182151516156200081c576200081b620005e5565b5b828202905092915050565b600082825260208201905092915050565b7f45524332304361707065643a2063617020697320300000000000000000000000600082015250565b60006200087060158362000827565b91506200087d8262000838565b602082019050919050565b60006020820190508181036000830152620008a38162000861565b9050919050565b6000620008b78262000578565b9150620008c48362000578565b9250827fffffffffffffffffffffffffffffffffffffffffffffffffffffffffffffffff03821115620008fc57620008fb620005e5565b5b828201905092915050565b7f45524332304361707065643a2063617020657863656564656400000000000000600082015250565b60006200093f60198362000827565b91506200094c8262000907565b602082019050919050565b60006020820190508181036000830152620009728162000930565b9050919050565b7f45524332303a206d696e7420746f20746865207a65726f206164647265737300600082015250565b6000620009b1601f8362000827565b9150620009be8262000979565b602082019050919050565b60006020820190508181036000830152620009e481620009a2565b9050919050565b620009f68162000578565b82525050565b600060208201905062000a136000830184620009eb565b92915050565b7f4e487b7100000000000000000000000000000000000000000000000000000000600052602260045260246000fd5b6000600282049050600182168062000a6157607f821691505b6020821081141562000a785762000a7762000a19565b5b50919050565b60805161320862000a9a6000396000610b6a01526132086000f3fe608060405234801561001057600080fd5b50600436106101735760003560e01c806352491d77116100de578063a457c2d711610097578063ae169a5011610071578063ae169a5014610472578063dd62ed3e1461048e578063e9c4aa6a146104be578063f2fde38b146104ee57610173565b8063a457c2d7146103e2578063a9059cbb14610412578063aa271e1a1461044257610173565b806352491d771461033457806370a0823114610350578063715018a6146103805780638da5cb5b1461038a57806395d89b41146103a8578063983b2d56146103c657610173565b80632e17de78116101305780632e17de78146102745780633092afd514610290578063313ce567146102ac578063355274ea146102ca57806339509351146102e85780633b29f82d1461031857610173565b806306fdde0314610178578063095ea7b31461019657806318160ddd146101c65780631852e8d9146101e457806323b872dd14610214578063245fc1ba14610244575b600080fd5b61018061050a565b60405161018d91906120e3565b60405180910390f35b6101b060048036038101906101ab919061219e565b61059c565b6040516101bd91906121f9565b60405180910390f35b6101ce6105bf565b6040516101db9190612223565b60405180910390f35b6101fe60048036038101906101f9919061219e565b6105c9565b60405161020b9190612223565b60405180910390f35b61022e6004803603810190610229919061223e565b610756565b60405161023b91906121f9565b60405180910390f35b61025e6004803603810190610259919061219e565b61076f565b60405161026b91906121f9565b60405180910390f35b61028e60048036038101906102899190612291565b6107cf565b005b6102aa60048036038101906102a591906122be565b610a34565b005b6102b4610b5d565b6040516102c19190612307565b60405180910390f35b6102d2610b66565b6040516102df9190612223565b60405180910390f35b61030260048036038101906102fd919061219e565b610b8e565b60405161030f91906121f9565b60405180910390f35b610332600480360381019061032d9190612322565b610bc5565b005b61034e6004803603810190610349919061219e565b610ddb565b005b61036a600480360381019061036591906122be565b610e75565b6040516103779190612223565b60405180910390f35b610388610ebd565b005b610392610ed1565b60405161039f9190612384565b60405180910390f35b6103b0610efb565b6040516103bd91906120e3565b60405180910390f35b6103e060048036038101906103db91906122be565b610f8d565b005b6103fc60048036038101906103f7919061219e565b611130565b60405161040991906121f9565b60405180910390f35b61042c6004803603810190610427919061219e565b6111a7565b60405161043991906121f9565b60405180910390f35b61045c600480360381019061045791906122be565b6111be565b60405161046991906121f9565b60405180910390f35b61048c60048036038101906104879190612291565b611214565b005b6104a860048036038101906104a3919061239f565b6113cd565b6040516104b59190612223565b60405180910390f35b6104d860048036038101906104d39190612291565b611454565b6040516104e59190612430565b60405180910390f35b610508600480360381019061050391906122be565b61152b565b005b6060600380546105199061247a565b80601f01602080910402602001604051908101604052809291908181526020018280546105459061247a565b80156105925780601f1061056757610100808354040283529160200191610592565b820191906000526020600020905b81548152906001019060200180831161057557829003601f168201915b5050505050905090565b6000806105a7611770565b90506105b4818585611778565b600191505092915050565b6000600254905090565b600060b48214806105db575061016882145b806105e7575061021c82145b610626576040517f08c379a000000000000000000000000000000000000000000000000000000000815260040161061d906124f8565b60405180910390fd5b610630838361076f565b61066f576040517f08c379a000000000000000000000000000000000000000000000000000000000815260040161066690612564565b60405180910390fd5b6000600760008573ffffffffffffffffffffffffffffffffffffffff1673ffffffffffffffffffffffffffffffffffffffff168152602001908152602001600020600084815260200190815260200160002060405180606001604052908160008201548152602001600182015481526020016002820154815250509050600061070582602001514261194390919063ffffffff16565b905060006107488561073a856040015161072c86886000015161195990919063ffffffff16565b61195990919063ffffffff16565b61196f90919063ffffffff16565b905080935050505092915050565b6000610763848484611985565b50600190509392505050565b600080600760008573ffffffffffffffffffffffffffffffffffffffff1673ffffffffffffffffffffffffffffffffffffffff16815260200190815260200160002060008481526020019081526020016000206000015411905092915050565b8060b48114806107e0575061016881145b806107ec575061021c81145b61082b576040517f08c379a0000000000000000000000000000000000000000000000000000000008152600401610822906124f8565b60405180910390fd5b610835338361076f565b610874576040517f08c379a000000000000000000000000000000000000000000000000000000000815260040161086b90612564565b60405180910390fd5b600060018361088391906125b3565b90506000600760003373ffffffffffffffffffffffffffffffffffffffff1673ffffffffffffffffffffffffffffffffffffffff168152602001908152602001600020600085815260200190815260200160002060405180606001604052908160008201548152602001600182015481526020016002820154815250509050600061091b82602001514261194390919063ffffffff16565b905082811015610938576109333383600001516115af565b610968565b600061094433876105c9565b9050610966336109618386600001516119b490919063ffffffff16565b6115af565b505b600760003373ffffffffffffffffffffffffffffffffffffffff1673ffffffffffffffffffffffffffffffffffffffff16815260200190815260200160002060008681526020019081526020016000206000808201600090556001820160009055600282016000905550503373ffffffffffffffffffffffffffffffffffffffff167fe459f94c17aa4da1f63d0ef54ee0eaebd2020d49a2138157a28319650d9d57918360000151878560400151604051610a259392919061260d565b60405180910390a25050505050565b610a3c6119ca565b600660008273ffffffffffffffffffffffffffffffffffffffff1673ffffffffffffffffffffffffffffffffffffffff16815260200190815260200160002060009054906101000a900460ff16610ac8576040517f08c379a0000000000000000000000000000000000000000000000000000000008152600401610abf906126b6565b60405180910390fd5b600660008273ffffffffffffffffffffffffffffffffffffffff1673ffffffffffffffffffffffffffffffffffffffff16815260200190815260200160002060006101000a81549060ff02191690558073ffffffffffffffffffffffffffffffffffffffff167f7df677640dd30a79584f8ecea06aeea15d215b861c5d3b5f8c26962d691f820e60405160405180910390a250565b60006012905090565b60007f0000000000000000000000000000000000000000000000000000000000000000905090565b600080610b99611770565b9050610bba818585610bab85896113cd565b610bb591906126d6565b611778565b600191505092915050565b8160b4811480610bd6575061016881145b80610be2575061021c81145b610c21576040517f08c379a0000000000000000000000000000000000000000000000000000000008152600401610c18906124f8565b60405180910390fd5b600084905060008111610c69576040517f08c379a0000000000000000000000000000000000000000000000000000000008152600401610c6090612778565b60405180910390fd5b610c7233610e75565b811115610cb4576040517f08c379a0000000000000000000000000000000000000000000000000000000008152600401610cab906127e4565b60405180910390fd5b6000600760003373ffffffffffffffffffffffffffffffffffffffff1673ffffffffffffffffffffffffffffffffffffffff168152602001908152602001600020600086815260200190815260200160002090506000816000015414610d4f576040517f08c379a0000000000000000000000000000000000000000000000000000000008152600401610d4690612850565b60405180910390fd5b610d593387611a48565b81816000018190555042816001018190555061271084610d79919061289f565b81600201819055503373ffffffffffffffffffffffffffffffffffffffff167ffee41ab8d413b04bf85ae4b4d4a2652bae467f4763d02c3568697de3c58f251d838787604051610dcb9392919061260d565b60405180910390a2505050505050565b600660003373ffffffffffffffffffffffffffffffffffffffff1673ffffffffffffffffffffffffffffffffffffffff16815260200190815260200160002060009054906101000a900460ff16610e67576040517f08c379a0000000000000000000000000000000000000000000000000000000008152600401610e5e9061291c565b60405180910390fd5b610e718282611a56565b5050565b60008060008373ffffffffffffffffffffffffffffffffffffffff1673ffffffffffffffffffffffffffffffffffffffff168152602001908152602001600020549050919050565b610ec56119ca565b610ecf6000611a64565b565b6000600560009054906101000a900473ffffffffffffffffffffffffffffffffffffffff16905090565b606060048054610f0a9061247a565b80601f0160208091040260200160405190810160405280929190818152602001828054610f369061247a565b8015610f835780601f10610f5857610100808354040283529160200191610f83565b820191906000526020600020905b815481529060010190602001808311610f6657829003601f168201915b5050505050905090565b610f956119ca565b600073ffffffffffffffffffffffffffffffffffffffff168173ffffffffffffffffffffffffffffffffffffffff161415611005576040517f08c379a0000000000000000000000000000000000000000000000000000000008152600401610ffc906129ae565b60405180910390fd5b600660008273ffffffffffffffffffffffffffffffffffffffff1673ffffffffffffffffffffffffffffffffffffffff16815260200190815260200160002060009054906101000a900460ff1615611092576040517f08c379a000000000000000000000000000000000000000000000000000000000815260040161108990612a40565b60405180910390fd5b6001600660008373ffffffffffffffffffffffffffffffffffffffff1673ffffffffffffffffffffffffffffffffffffffff16815260200190815260200160002060006101000a81548160ff0219169083151502179055508073ffffffffffffffffffffffffffffffffffffffff167f3a159411d00fa06a3ec11d4578931f1b7f877cceadb1e083929d74ec020cb24360405160405180910390a250565b60008061113b611770565b9050600061114982866113cd565b90508381101561118e576040517f08c379a000000000000000000000000000000000000000000000000000000000815260040161118590612ad2565b60405180910390fd5b61119b8286868403611778565b60019250505092915050565b60006111b38383611b2a565b506001905092915050565b6000600660008373ffffffffffffffffffffffffffffffffffffffff1673ffffffffffffffffffffffffffffffffffffffff16815260200190815260200160002060009054906101000a900460ff169050919050565b8060b4811480611225575061016881145b80611231575061021c81145b611270576040517f08c379a0000000000000000000000000000000000000000000000000000000008152600401611267906124f8565b60405180910390fd5b61127a338361076f565b6112b9576040517f08c379a00000000000000000000000000000000000000000000000000000000081526004016112b090612564565b60405180910390fd5b60006112c533846105c9565b90506000811161130a576040517f08c379a000000000000000000000000000000000000000000000000000000000815260040161130190612b3e565b60405180910390fd5b61131433826115af565b6000600760003373ffffffffffffffffffffffffffffffffffffffff1673ffffffffffffffffffffffffffffffffffffffff168152602001908152602001600020600085815260200190815260200160002090504281600101819055503373ffffffffffffffffffffffffffffffffffffffff167fcfd94956d85b4f880ca0529623796aa42bce13c89d593e1c06d13c202e6a0ca3838684600201546040516113bf9392919061260d565b60405180910390a250505050565b6000600160008473ffffffffffffffffffffffffffffffffffffffff1673ffffffffffffffffffffffffffffffffffffffff16815260200190815260200160002060008373ffffffffffffffffffffffffffffffffffffffff1673ffffffffffffffffffffffffffffffffffffffff16815260200190815260200160002054905092915050565b61145c612029565b611466338361076f565b6114a5576040517f08c379a000000000000000000000000000000000000000000000000000000000815260040161149c90612564565b60405180910390fd5b6000600760003373ffffffffffffffffffffffffffffffffffffffff1673ffffffffffffffffffffffffffffffffffffffff16815260200190815260200160002060008481526020019081526020016000206040518060600160405290816000820154815260200160018201548152602001600282015481525050905080915050919050565b6115336119ca565b600073ffffffffffffffffffffffffffffffffffffffff168173ffffffffffffffffffffffffffffffffffffffff1614156115a3576040517f08c379a000000000000000000000000000000000000000000000000000000000815260040161159a90612bd0565b60405180910390fd5b6115ac81611a64565b50565b6115b7610b66565b816115c06105bf565b6115ca91906126d6565b111561160b576040517f08c379a000000000000000000000000000000000000000000000000000000000815260040161160290612c3c565b60405180910390fd5b6116158282611619565b5050565b600073ffffffffffffffffffffffffffffffffffffffff168273ffffffffffffffffffffffffffffffffffffffff161415611689576040517f08c379a000000000000000000000000000000000000000000000000000000000815260040161168090612ca8565b60405180910390fd5b61169560008383611b4d565b80600260008282546116a791906126d6565b92505081905550806000808473ffffffffffffffffffffffffffffffffffffffff1673ffffffffffffffffffffffffffffffffffffffff168152602001908152602001600020600082825401925050819055508173ffffffffffffffffffffffffffffffffffffffff16600073ffffffffffffffffffffffffffffffffffffffff167fddf252ad1be2c89b69c2b068fc378daa952ba7f163c4a11628f55a4df523b3ef836040516117589190612223565b60405180910390a361176c60008383611b52565b5050565b600033905090565b600073ffffffffffffffffffffffffffffffffffffffff168373ffffffffffffffffffffffffffffffffffffffff1614156117e8576040517f08c379a00000000000000000000000000000000000000000000000000000000081526004016117df90612d3a565b60405180910390fd5b600073ffffffffffffffffffffffffffffffffffffffff168273ffffffffffffffffffffffffffffffffffffffff161415611858576040517f08c379a000000000000000000000000000000000000000000000000000000000815260040161184f90612dcc565b60405180910390fd5b80600160008573ffffffffffffffffffffffffffffffffffffffff1673ffffffffffffffffffffffffffffffffffffffff16815260200190815260200160002060008473ffffffffffffffffffffffffffffffffffffffff1673ffffffffffffffffffffffffffffffffffffffff168152602001908152602001600020819055508173ffffffffffffffffffffffffffffffffffffffff168373ffffffffffffffffffffffffffffffffffffffff167f8c5be1e5ebec7d5bd14f71427d1e84f3dd0314c0f7b2291e5b200ac8c7c3b925836040516119369190612223565b60405180910390a3505050565b600081836119519190612dec565b905092915050565b6000818361196791906125b3565b905092915050565b6000818361197d919061289f565b905092915050565b600080611990611770565b905061199d858285611b57565b6119a8858585611be3565b60019150509392505050565b600081836119c291906126d6565b905092915050565b6119d2611770565b73ffffffffffffffffffffffffffffffffffffffff166119f0610ed1565b73ffffffffffffffffffffffffffffffffffffffff1614611a46576040517f08c379a0000000000000000000000000000000000000000000000000000000008152600401611a3d90612e6c565b60405180910390fd5b565b611a528282611e5b565b5050565b611a6082826115af565b5050565b6000600560009054906101000a900473ffffffffffffffffffffffffffffffffffffffff16905081600560006101000a81548173ffffffffffffffffffffffffffffffffffffffff021916908373ffffffffffffffffffffffffffffffffffffffff1602179055508173ffffffffffffffffffffffffffffffffffffffff168173ffffffffffffffffffffffffffffffffffffffff167f8be0079c531659141344cd1fd0a4f28419497f9722a3daafe3b4186f6b6457e060405160405180910390a35050565b600080611b35611770565b9050611b42818585611be3565b600191505092915050565b505050565b505050565b6000611b6384846113cd565b90507fffffffffffffffffffffffffffffffffffffffffffffffffffffffffffffffff8114611bdd5781811015611bcf576040517f08c379a0000000000000000000000000000000000000000000000000000000008152600401611bc690612ed8565b60405180910390fd5b611bdc8484848403611778565b5b50505050565b600073ffffffffffffffffffffffffffffffffffffffff168373ffffffffffffffffffffffffffffffffffffffff161415611c53576040517f08c379a0000000000000000000000000000000000000000000000000000000008152600401611c4a90612f6a565b60405180910390fd5b600073ffffffffffffffffffffffffffffffffffffffff168273ffffffffffffffffffffffffffffffffffffffff161415611cc3576040517f08c379a0000000000000000000000000000000000000000000000000000000008152600401611cba90612ffc565b60405180910390fd5b611cce838383611b4d565b60008060008573ffffffffffffffffffffffffffffffffffffffff1673ffffffffffffffffffffffffffffffffffffffff16815260200190815260200160002054905081811015611d54576040517f08c379a0000000000000000000000000000000000000000000000000000000008152600401611d4b9061308e565b60405180910390fd5b8181036000808673ffffffffffffffffffffffffffffffffffffffff1673ffffffffffffffffffffffffffffffffffffffff16815260200190815260200160002081905550816000808573ffffffffffffffffffffffffffffffffffffffff1673ffffffffffffffffffffffffffffffffffffffff168152602001908152602001600020600082825401925050819055508273ffffffffffffffffffffffffffffffffffffffff168473ffffffffffffffffffffffffffffffffffffffff167fddf252ad1be2c89b69c2b068fc378daa952ba7f163c4a11628f55a4df523b3ef84604051611e429190612223565b60405180910390a3611e55848484611b52565b50505050565b600073ffffffffffffffffffffffffffffffffffffffff168273ffffffffffffffffffffffffffffffffffffffff161415611ecb576040517f08c379a0000000000000000000000000000000000000000000000000000000008152600401611ec290613120565b60405180910390fd5b611ed782600083611b4d565b60008060008473ffffffffffffffffffffffffffffffffffffffff1673ffffffffffffffffffffffffffffffffffffffff16815260200190815260200160002054905081811015611f5d576040517f08c379a0000000000000000000000000000000000000000000000000000000008152600401611f54906131b2565b60405180910390fd5b8181036000808573ffffffffffffffffffffffffffffffffffffffff1673ffffffffffffffffffffffffffffffffffffffff1681526020019081526020016000208190555081600260008282540392505081905550600073ffffffffffffffffffffffffffffffffffffffff168373ffffffffffffffffffffffffffffffffffffffff167fddf252ad1be2c89b69c2b068fc378daa952ba7f163c4a11628f55a4df523b3ef846040516120109190612223565b60405180910390a361202483600084611b52565b505050565b60405180606001604052806000815260200160008152602001600081525090565b600081519050919050565b600082825260208201905092915050565b60005b83811015612084578082015181840152602081019050612069565b83811115612093576000848401525b50505050565b6000601f19601f8301169050919050565b60006120b58261204a565b6120bf8185612055565b93506120cf818560208601612066565b6120d881612099565b840191505092915050565b600060208201905081810360008301526120fd81846120aa565b905092915050565b600080fd5b600073ffffffffffffffffffffffffffffffffffffffff82169050919050565b60006121358261210a565b9050919050565b6121458161212a565b811461215057600080fd5b50565b6000813590506121628161213c565b92915050565b6000819050919050565b61217b81612168565b811461218657600080fd5b50565b60008135905061219881612172565b92915050565b600080604083850312156121b5576121b4612105565b5b60006121c385828601612153565b92505060206121d485828601612189565b9150509250929050565b60008115159050919050565b6121f3816121de565b82525050565b600060208201905061220e60008301846121ea565b92915050565b61221d81612168565b82525050565b60006020820190506122386000830184612214565b92915050565b60008060006060848603121561225757612256612105565b5b600061226586828701612153565b935050602061227686828701612153565b925050604061228786828701612189565b9150509250925092565b6000602082840312156122a7576122a6612105565b5b60006122b584828501612189565b91505092915050565b6000602082840312156122d4576122d3612105565b5b60006122e284828501612153565b91505092915050565b600060ff82169050919050565b612301816122eb565b82525050565b600060208201905061231c60008301846122f8565b92915050565b60008060006060848603121561233b5761233a612105565b5b600061234986828701612189565b935050602061235a86828701612189565b925050604061236b86828701612189565b9150509250925092565b61237e8161212a565b82525050565b60006020820190506123996000830184612375565b92915050565b600080604083850312156123b6576123b5612105565b5b60006123c485828601612153565b92505060206123d585828601612153565b9150509250929050565b6123e881612168565b82525050565b60608201600082015161240460008501826123df565b50602082015161241760208501826123df565b50604082015161242a60408501826123df565b50505050565b600060608201905061244560008301846123ee565b92915050565b7f4e487b7100000000000000000000000000000000000000000000000000000000600052602260045260246000fd5b6000600282049050600182168061249257607f821691505b602082108114156124a6576124a561244b565b5b50919050565b7f496e76616c6964206475726174696f6e00000000000000000000000000000000600082015250565b60006124e2601083612055565b91506124ed826124ac565b602082019050919050565b60006020820190508181036000830152612511816124d5565b9050919050565b7f4e6f207374616b696e6720666f756e6400000000000000000000000000000000600082015250565b600061254e601083612055565b915061255982612518565b602082019050919050565b6000602082019050818103600083015261257d81612541565b9050919050565b7f4e487b7100000000000000000000000000000000000000000000000000000000600052601160045260246000fd5b60006125be82612168565b91506125c983612168565b9250817fffffffffffffffffffffffffffffffffffffffffffffffffffffffffffffffff048311821515161561260257612601612584565b5b828202905092915050565b60006060820190506126226000830186612214565b61262f6020830185612214565b61263c6040830184612214565b949350505050565b7f4d696e746572526f6c653a3a206d696e74657220646f6573206e6f742065786960008201527f7374000000000000000000000000000000000000000000000000000000000000602082015250565b60006126a0602283612055565b91506126ab82612644565b604082019050919050565b600060208201905081810360008301526126cf81612693565b9050919050565b60006126e182612168565b91506126ec83612168565b9250827fffffffffffffffffffffffffffffffffffffffffffffffffffffffffffffffff0382111561272157612720612584565b5b828201905092915050565b7f416d6f756e74206d7573742062652067726561746572207468616e2030000000600082015250565b6000612762601d83612055565b915061276d8261272c565b602082019050919050565b6000602082019050818103600083015261279181612755565b9050919050565b7f496e73756666696369656e742062616c616e6365000000000000000000000000600082015250565b60006127ce601483612055565b91506127d982612798565b602082019050919050565b600060208201905081810360008301526127fd816127c1565b9050919050565b7f416c7265616479207374616b6564000000000000000000000000000000000000600082015250565b600061283a600e83612055565b915061284582612804565b602082019050919050565b600060208201905081810360008301526128698161282d565b9050919050565b7f4e487b7100000000000000000000000000000000000000000000000000000000600052601260045260246000fd5b60006128aa82612168565b91506128b583612168565b9250826128c5576128c4612870565b5b828204905092915050565b7f4d696e746572526f6c653a3a206d7573742062652061206d696e746572000000600082015250565b6000612906601d83612055565b9150612911826128d0565b602082019050919050565b60006020820190508181036000830152612935816128f9565b9050919050565b7f4d696e746572526f6c653a3a206d696e746572206d757374206e6f742062652060008201527f6e756c6c20616464726573730000000000000000000000000000000000000000602082015250565b6000612998602c83612055565b91506129a38261293c565b604082019050919050565b600060208201905081810360008301526129c78161298b565b9050919050565b7f4d696e746572526f6c653a3a206d696e74657220616c7265616479206164646560008201527f6400000000000000000000000000000000000000000000000000000000000000602082015250565b6000612a2a602183612055565b9150612a35826129ce565b604082019050919050565b60006020820190508181036000830152612a5981612a1d565b9050919050565b7f45524332303a2064656372656173656420616c6c6f77616e63652062656c6f7760008201527f207a65726f000000000000000000000000000000000000000000000000000000602082015250565b6000612abc602583612055565b9150612ac782612a60565b604082019050919050565b60006020820190508181036000830152612aeb81612aaf565b9050919050565b7f4e6f2072657761726420746f20636c61696d0000000000000000000000000000600082015250565b6000612b28601283612055565b9150612b3382612af2565b602082019050919050565b60006020820190508181036000830152612b5781612b1b565b9050919050565b7f4f776e61626c653a206e6577206f776e657220697320746865207a65726f206160008201527f6464726573730000000000000000000000000000000000000000000000000000602082015250565b6000612bba602683612055565b9150612bc582612b5e565b604082019050919050565b60006020820190508181036000830152612be981612bad565b9050919050565b7f45524332304361707065643a2063617020657863656564656400000000000000600082015250565b6000612c26601983612055565b9150612c3182612bf0565b602082019050919050565b60006020820190508181036000830152612c5581612c19565b9050919050565b7f45524332303a206d696e7420746f20746865207a65726f206164647265737300600082015250565b6000612c92601f83612055565b9150612c9d82612c5c565b602082019050919050565b60006020820190508181036000830152612cc181612c85565b9050919050565b7f45524332303a20617070726f76652066726f6d20746865207a65726f2061646460008201527f7265737300000000000000000000000000000000000000000000000000000000602082015250565b6000612d24602483612055565b9150612d2f82612cc8565b604082019050919050565b60006020820190508181036000830152612d5381612d17565b9050919050565b7f45524332303a20617070726f766520746f20746865207a65726f20616464726560008201527f7373000000000000000000000000000000000000000000000000000000000000602082015250565b6000612db6602283612055565b9150612dc182612d5a565b604082019050919050565b60006020820190508181036000830152612de581612da9565b9050919050565b6000612df782612168565b9150612e0283612168565b925082821015612e1557612e14612584565b5b828203905092915050565b7f4f776e61626c653a2063616c6c6572206973206e6f7420746865206f776e6572600082015250565b6000612e56602083612055565b9150612e6182612e20565b602082019050919050565b60006020820190508181036000830152612e8581612e49565b9050919050565b7f45524332303a20696e73756666696369656e7420616c6c6f77616e6365000000600082015250565b6000612ec2601d83612055565b9150612ecd82612e8c565b602082019050919050565b60006020820190508181036000830152612ef181612eb5565b9050919050565b7f45524332303a207472616e736665722066726f6d20746865207a65726f20616460008201527f6472657373000000000000000000000000000000000000000000000000000000602082015250565b6000612f54602583612055565b9150612f5f82612ef8565b604082019050919050565b60006020820190508181036000830152612f8381612f47565b9050919050565b7f45524332303a207472616e7366657220746f20746865207a65726f206164647260008201527f6573730000000000000000000000000000000000000000000000000000000000602082015250565b6000612fe6602383612055565b9150612ff182612f8a565b604082019050919050565b6000602082019050818103600083015261301581612fd9565b9050919050565b7f45524332303a207472616e7366657220616d6f756e742065786365656473206260008201527f616c616e63650000000000000000000000000000000000000000000000000000602082015250565b6000613078602683612055565b91506130838261301c565b604082019050919050565b600060208201905081810360008301526130a78161306b565b9050919050565b7f45524332303a206275726e2066726f6d20746865207a65726f2061646472657360008201527f7300000000000000000000000000000000000000000000000000000000000000602082015250565b600061310a602183612055565b9150613115826130ae565b604082019050919050565b60006020820190508181036000830152613139816130fd565b9050919050565b7f45524332303a206275726e20616d6f756e7420657863656564732062616c616e60008201527f6365000000000000000000000000000000000000000000000000000000000000602082015250565b600061319c602283612055565b91506131a782613140565b604082019050919050565b600060208201905081810360008301526131cb8161318f565b905091905056fea2646970667358221220c178d31709f5cfc00b649720f94618c10fbfd506f7e1fc73f229b5d4306981ca64736f6c63430008090033",
  "linkReferences": {},
  "deployedLinkReferences": {}
}