{
  "_format": "hh-sol-artifact-1",
  "contractName": "LuregasToken",
  "sourceName": "contracts/Token.sol",
  "abi": [
    {
      "inputs": [
        {
          "internalType": "uint256",
          "name": "cap",
          "type": "uint256"
        }
      ],
      "stateMutability": "nonpayable",
      "type": "constructor"
    },
    {
      "anonymous": false,
      "inputs": [
        {
          "indexed": true,
          "internalType": "address",
          "name": "owner",
          "type": "address"
        },
        {
          "indexed": true,
          "internalType": "address",
          "name": "spender",
          "type": "address"
        },
        {
          "indexed": false,
          "internalType": "uint256",
          "name": "value",
          "type": "uint256"
        }
      ],
      "name": "Approval",
      "type": "event"
    },
    {
      "anonymous": false,
      "inputs": [
        {
          "indexed": true,
          "internalType": "bytes32",
          "name": "role",
          "type": "bytes32"
        },
        {
          "indexed": true,
          "internalType": "bytes32",
          "name": "previousAdminRole",
          "type": "bytes32"
        },
        {
          "indexed": true,
          "internalType": "bytes32",
          "name": "newAdminRole",
          "type": "bytes32"
        }
      ],
      "name": "RoleAdminChanged",
      "type": "event"
    },
    {
      "anonymous": false,
      "inputs": [
        {
          "indexed": true,
          "internalType": "bytes32",
          "name": "role",
          "type": "bytes32"
        },
        {
          "indexed": true,
          "internalType": "address",
          "name": "account",
          "type": "address"
        },
        {
          "indexed": true,
          "internalType": "address",
          "name": "sender",
          "type": "address"
        }
      ],
      "name": "RoleGranted",
      "type": "event"
    },
    {
      "anonymous": false,
      "inputs": [
        {
          "indexed": true,
          "internalType": "bytes32",
          "name": "role",
          "type": "bytes32"
        },
        {
          "indexed": true,
          "internalType": "address",
          "name": "account",
          "type": "address"
        },
        {
          "indexed": true,
          "internalType": "address",
          "name": "sender",
          "type": "address"
        }
      ],
      "name": "RoleRevoked",
      "type": "event"
    },
    {
      "anonymous": false,
      "inputs": [
        {
          "indexed": true,
          "internalType": "address",
          "name": "from",
          "type": "address"
        },
        {
          "indexed": true,
          "internalType": "address",
          "name": "to",
          "type": "address"
        },
        {
          "indexed": false,
          "internalType": "uint256",
          "name": "value",
          "type": "uint256"
        }
      ],
      "name": "Transfer",
      "type": "event"
    },
    {
      "anonymous": false,
      "inputs": [
        {
          "indexed": true,
          "internalType": "address",
          "name": "user",
          "type": "address"
        },
        {
          "indexed": false,
          "internalType": "uint256",
          "name": "amount",
          "type": "uint256"
        },
        {
          "indexed": false,
          "internalType": "uint256",
          "name": "duration",
          "type": "uint256"
        },
        {
          "indexed": false,
          "internalType": "uint24",
          "name": "rewardRate",
          "type": "uint24"
        }
      ],
      "name": "claimed",
      "type": "event"
    },
    {
      "anonymous": false,
      "inputs": [
        {
          "indexed": true,
          "internalType": "address",
          "name": "user",
          "type": "address"
        },
        {
          "indexed": false,
          "internalType": "uint256",
          "name": "amount",
          "type": "uint256"
        },
        {
          "indexed": false,
          "internalType": "uint256",
          "name": "duration",
          "type": "uint256"
        },
        {
          "indexed": false,
          "internalType": "uint24",
          "name": "rewardRate",
          "type": "uint24"
        }
      ],
      "name": "staked",
      "type": "event"
    },
    {
      "anonymous": false,
      "inputs": [
        {
          "indexed": true,
          "internalType": "address",
          "name": "user",
          "type": "address"
        },
        {
          "indexed": false,
          "internalType": "uint256",
          "name": "amount",
          "type": "uint256"
        },
        {
          "indexed": false,
          "internalType": "uint256",
          "name": "duration",
          "type": "uint256"
        },
        {
          "indexed": false,
          "internalType": "uint24",
          "name": "rewardRate",
          "type": "uint24"
        }
      ],
      "name": "unstaked",
      "type": "event"
    },
    {
      "inputs": [],
      "name": "DEFAULT_ADMIN_ROLE",
      "outputs": [
        {
          "internalType": "bytes32",
          "name": "",
          "type": "bytes32"
        }
      ],
      "stateMutability": "view",
      "type": "function"
    },
    {
      "inputs": [],
      "name": "MINTER_ROLE",
      "outputs": [
        {
          "internalType": "bytes32",
          "name": "",
          "type": "bytes32"
        }
      ],
      "stateMutability": "view",
      "type": "function"
    },
    {
      "inputs": [
        {
          "internalType": "address",
          "name": "owner",
          "type": "address"
        },
        {
          "internalType": "address",
          "name": "spender",
          "type": "address"
        }
      ],
      "name": "allowance",
      "outputs": [
        {
          "internalType": "uint256",
          "name": "",
          "type": "uint256"
        }
      ],
      "stateMutability": "view",
      "type": "function"
    },
    {
      "inputs": [
        {
          "internalType": "address",
          "name": "spender",
          "type": "address"
        },
        {
          "internalType": "uint256",
          "name": "amount",
          "type": "uint256"
        }
      ],
      "name": "approve",
      "outputs": [
        {
          "internalType": "bool",
          "name": "",
          "type": "bool"
        }
      ],
      "stateMutability": "nonpayable",
      "type": "function"
    },
    {
      "inputs": [
        {
          "internalType": "address",
          "name": "account",
          "type": "address"
        }
      ],
      "name": "balanceOf",
      "outputs": [
        {
          "internalType": "uint256",
          "name": "",
          "type": "uint256"
        }
      ],
      "stateMutability": "view",
      "type": "function"
    },
    {
      "inputs": [
        {
          "internalType": "address",
          "name": "_address",
          "type": "address"
        },
        {
          "internalType": "uint256",
          "name": "_duration",
          "type": "uint256"
        }
      ],
      "name": "calculateReward",
      "outputs": [
        {
          "internalType": "uint256",
          "name": "",
          "type": "uint256"
        }
      ],
      "stateMutability": "view",
      "type": "function"
    },
    {
      "inputs": [],
      "name": "cap",
      "outputs": [
        {
          "internalType": "uint256",
          "name": "",
          "type": "uint256"
        }
      ],
      "stateMutability": "view",
      "type": "function"
    },
    {
      "inputs": [
        {
          "internalType": "uint256",
          "name": "_duration",
          "type": "uint256"
        }
      ],
      "name": "claimReward",
      "outputs": [],
      "stateMutability": "nonpayable",
      "type": "function"
    },
    {
      "inputs": [
        {
          "internalType": "uint256",
          "name": "_amount",
          "type": "uint256"
        },
        {
          "internalType": "uint256",
          "name": "_duration",
          "type": "uint256"
        },
        {
          "internalType": "uint24",
          "name": "_rewardRate",
          "type": "uint24"
        }
      ],
      "name": "createStake",
      "outputs": [],
      "stateMutability": "nonpayable",
      "type": "function"
    },
    {
      "inputs": [],
      "name": "decimals",
      "outputs": [
        {
          "internalType": "uint8",
          "name": "",
          "type": "uint8"
        }
      ],
      "stateMutability": "view",
      "type": "function"
    },
    {
      "inputs": [
        {
          "internalType": "address",
          "name": "spender",
          "type": "address"
        },
        {
          "internalType": "uint256",
          "name": "subtractedValue",
          "type": "uint256"
        }
      ],
      "name": "decreaseAllowance",
      "outputs": [
        {
          "internalType": "bool",
          "name": "",
          "type": "bool"
        }
      ],
      "stateMutability": "nonpayable",
      "type": "function"
    },
    {
      "inputs": [
        {
          "internalType": "bytes32",
          "name": "role",
          "type": "bytes32"
        }
      ],
      "name": "getRoleAdmin",
      "outputs": [
        {
          "internalType": "bytes32",
          "name": "",
          "type": "bytes32"
        }
      ],
      "stateMutability": "view",
      "type": "function"
    },
    {
      "inputs": [
        {
          "internalType": "uint256",
          "name": "_duration",
          "type": "uint256"
        }
      ],
      "name": "getStakingInfo",
      "outputs": [
        {
          "internalType": "uint256",
          "name": "amount",
          "type": "uint256"
        },
        {
          "internalType": "uint256",
          "name": "startTime",
          "type": "uint256"
        },
        {
          "internalType": "uint24",
          "name": "rewardRate",
          "type": "uint24"
        }
      ],
      "stateMutability": "view",
      "type": "function"
    },
    {
      "inputs": [
        {
          "internalType": "bytes32",
          "name": "role",
          "type": "bytes32"
        },
        {
          "internalType": "address",
          "name": "account",
          "type": "address"
        }
      ],
      "name": "grantRole",
      "outputs": [],
      "stateMutability": "nonpayable",
      "type": "function"
    },
    {
      "inputs": [
        {
          "internalType": "bytes32",
          "name": "role",
          "type": "bytes32"
        },
        {
          "internalType": "address",
          "name": "account",
          "type": "address"
        }
      ],
      "name": "hasRole",
      "outputs": [
        {
          "internalType": "bool",
          "name": "",
          "type": "bool"
        }
      ],
      "stateMutability": "view",
      "type": "function"
    },
    {
      "inputs": [
        {
          "internalType": "address",
          "name": "spender",
          "type": "address"
        },
        {
          "internalType": "uint256",
          "name": "addedValue",
          "type": "uint256"
        }
      ],
      "name": "increaseAllowance",
      "outputs": [
        {
          "internalType": "bool",
          "name": "",
          "type": "bool"
        }
      ],
      "stateMutability": "nonpayable",
      "type": "function"
    },
    {
      "inputs": [
        {
          "internalType": "address",
          "name": "_address",
          "type": "address"
        },
        {
          "internalType": "uint256",
          "name": "_duration",
          "type": "uint256"
        }
      ],
      "name": "isStaking",
      "outputs": [
        {
          "internalType": "bool",
          "name": "",
          "type": "bool"
        }
      ],
      "stateMutability": "view",
      "type": "function"
    },
    {
      "inputs": [
        {
          "internalType": "address",
          "name": "account",
          "type": "address"
        },
        {
          "internalType": "uint256",
          "name": "amount",
          "type": "uint256"
        }
      ],
      "name": "mintByMinter",
      "outputs": [],
      "stateMutability": "nonpayable",
      "type": "function"
    },
    {
      "inputs": [],
      "name": "name",
      "outputs": [
        {
          "internalType": "string",
          "name": "",
          "type": "string"
        }
      ],
      "stateMutability": "view",
      "type": "function"
    },
    {
      "inputs": [
        {
          "internalType": "bytes32",
          "name": "role",
          "type": "bytes32"
        },
        {
          "internalType": "address",
          "name": "account",
          "type": "address"
        }
      ],
      "name": "renounceRole",
      "outputs": [],
      "stateMutability": "nonpayable",
      "type": "function"
    },
    {
      "inputs": [
        {
          "internalType": "bytes32",
          "name": "role",
          "type": "bytes32"
        },
        {
          "internalType": "address",
          "name": "account",
          "type": "address"
        }
      ],
      "name": "revokeRole",
      "outputs": [],
      "stateMutability": "nonpayable",
      "type": "function"
    },
    {
      "inputs": [
        {
          "internalType": "bytes4",
          "name": "interfaceId",
          "type": "bytes4"
        }
      ],
      "name": "supportsInterface",
      "outputs": [
        {
          "internalType": "bool",
          "name": "",
          "type": "bool"
        }
      ],
      "stateMutability": "view",
      "type": "function"
    },
    {
      "inputs": [],
      "name": "symbol",
      "outputs": [
        {
          "internalType": "string",
          "name": "",
          "type": "string"
        }
      ],
      "stateMutability": "view",
      "type": "function"
    },
    {
      "inputs": [],
      "name": "totalSupply",
      "outputs": [
        {
          "internalType": "uint256",
          "name": "",
          "type": "uint256"
        }
      ],
      "stateMutability": "view",
      "type": "function"
    },
    {
      "inputs": [
        {
          "internalType": "address",
          "name": "to",
          "type": "address"
        },
        {
          "internalType": "uint256",
          "name": "amount",
          "type": "uint256"
        }
      ],
      "name": "transfer",
      "outputs": [
        {
          "internalType": "bool",
          "name": "",
          "type": "bool"
        }
      ],
      "stateMutability": "nonpayable",
      "type": "function"
    },
    {
      "inputs": [
        {
          "internalType": "address",
          "name": "from",
          "type": "address"
        },
        {
          "internalType": "address",
          "name": "to",
          "type": "address"
        },
        {
          "internalType": "uint256",
          "name": "amount",
          "type": "uint256"
        }
      ],
      "name": "transferFrom",
      "outputs": [
        {
          "internalType": "bool",
          "name": "",
          "type": "bool"
        }
      ],
      "stateMutability": "nonpayable",
      "type": "function"
    },
    {
      "inputs": [
        {
          "internalType": "uint256",
          "name": "_duration",
          "type": "uint256"
        }
      ],
      "name": "unstake",
      "outputs": [],
      "stateMutability": "nonpayable",
      "type": "function"
    }
  ],
  "bytecode": "0x60a06040523480156200001157600080fd5b50604051620042bc380380620042bc8339818101604052810190620000379190620006a3565b62000047620001f760201b60201c565b600a62000055919062000865565b81620000629190620008b6565b6040518060400160405280600d81526020017f4c75726567617320546f6b656e000000000000000000000000000000000000008152506040518060400160405280600381526020017f4c475400000000000000000000000000000000000000000000000000000000008152508160039080519060200190620000e6929190620005b3565b508060049080519060200190620000ff929190620005b3565b5050506000811162000148576040517f08c379a00000000000000000000000000000000000000000000000000000000081526004016200013f9062000978565b60405180910390fd5b806080818152505050620001666000801b336200020060201b60201c565b620001987f9f2df0fed2c77648de5860a4cc508cd0818c85b8b8a1ab4ceeef8d981c8956a6336200020060201b60201c565b620001f03360646046620001b1620001f760201b60201c565b600a620001bf919062000865565b85620001cc9190620008b6565b620001d89190620008b6565b620001e49190620009c9565b6200021660201b60201c565b5062000bd5565b60006012905090565b6200021282826200023160201b60201c565b5050565b6200022d82826200032360201b6200155c1760201c565b5050565b620002438282620003b460201b60201c565b6200031f5760016005600084815260200190815260200160002060000160008373ffffffffffffffffffffffffffffffffffffffff1673ffffffffffffffffffffffffffffffffffffffff16815260200190815260200160002060006101000a81548160ff021916908315150217905550620002c46200041f60201b60201c565b73ffffffffffffffffffffffffffffffffffffffff168173ffffffffffffffffffffffffffffffffffffffff16837f2f8788117e7eff1d82e926ec794901d17c78024a50270940304540a733656f0d60405160405180910390a45b5050565b620003336200042760201b60201c565b81620003496200043160201b620006e51760201c565b62000355919062000a01565b111562000399576040517f08c379a0000000000000000000000000000000000000000000000000000000008152600401620003909062000aae565b60405180910390fd5b620003b082826200043b60201b620015c61760201c565b5050565b60006005600084815260200190815260200160002060000160008373ffffffffffffffffffffffffffffffffffffffff1673ffffffffffffffffffffffffffffffffffffffff16815260200190815260200160002060009054906101000a900460ff16905092915050565b600033905090565b6000608051905090565b6000600254905090565b600073ffffffffffffffffffffffffffffffffffffffff168273ffffffffffffffffffffffffffffffffffffffff161415620004ae576040517f08c379a0000000000000000000000000000000000000000000000000000000008152600401620004a59062000b20565b60405180910390fd5b620004c260008383620005a960201b60201c565b8060026000828254620004d6919062000a01565b92505081905550806000808473ffffffffffffffffffffffffffffffffffffffff1673ffffffffffffffffffffffffffffffffffffffff168152602001908152602001600020600082825401925050819055508173ffffffffffffffffffffffffffffffffffffffff16600073ffffffffffffffffffffffffffffffffffffffff167fddf252ad1be2c89b69c2b068fc378daa952ba7f163c4a11628f55a4df523b3ef8360405162000589919062000b53565b60405180910390a3620005a560008383620005ae60201b60201c565b5050565b505050565b505050565b828054620005c19062000b9f565b90600052602060002090601f016020900481019282620005e5576000855562000631565b82601f106200060057805160ff191683800117855562000631565b8280016001018555821562000631579182015b828111156200063057825182559160200191906001019062000613565b5b50905062000640919062000644565b5090565b5b808211156200065f57600081600090555060010162000645565b5090565b600080fd5b6000819050919050565b6200067d8162000668565b81146200068957600080fd5b50565b6000815190506200069d8162000672565b92915050565b600060208284031215620006bc57620006bb62000663565b5b6000620006cc848285016200068c565b91505092915050565b7f4e487b7100000000000000000000000000000000000000000000000000000000600052601160045260246000fd5b60008160011c9050919050565b6000808291508390505b600185111562000763578086048111156200073b576200073a620006d5565b5b60018516156200074b5780820291505b80810290506200075b8562000704565b94506200071b565b94509492505050565b6000826200077e576001905062000851565b816200078e576000905062000851565b8160018114620007a75760028114620007b257620007e8565b600191505062000851565b60ff841115620007c757620007c6620006d5565b5b8360020a915084821115620007e157620007e0620006d5565b5b5062000851565b5060208310610133831016604e8410600b8410161715620008225782820a9050838111156200081c576200081b620006d5565b5b62000851565b62000831848484600162000711565b925090508184048111156200084b576200084a620006d5565b5b81810290505b9392505050565b600060ff82169050919050565b6000620008728262000668565b91506200087f8362000858565b9250620008ae7fffffffffffffffffffffffffffffffffffffffffffffffffffffffffffffffff84846200076c565b905092915050565b6000620008c38262000668565b9150620008d08362000668565b9250817fffffffffffffffffffffffffffffffffffffffffffffffffffffffffffffffff04831182151516156200090c576200090b620006d5565b5b828202905092915050565b600082825260208201905092915050565b7f45524332304361707065643a2063617020697320300000000000000000000000600082015250565b60006200096060158362000917565b91506200096d8262000928565b602082019050919050565b60006020820190508181036000830152620009938162000951565b9050919050565b7f4e487b7100000000000000000000000000000000000000000000000000000000600052601260045260246000fd5b6000620009d68262000668565b9150620009e38362000668565b925082620009f657620009f56200099a565b5b828204905092915050565b600062000a0e8262000668565b915062000a1b8362000668565b9250827fffffffffffffffffffffffffffffffffffffffffffffffffffffffffffffffff0382111562000a535762000a52620006d5565b5b828201905092915050565b7f45524332304361707065643a2063617020657863656564656400000000000000600082015250565b600062000a9660198362000917565b915062000aa38262000a5e565b602082019050919050565b6000602082019050818103600083015262000ac98162000a87565b9050919050565b7f45524332303a206d696e7420746f20746865207a65726f206164647265737300600082015250565b600062000b08601f8362000917565b915062000b158262000ad0565b602082019050919050565b6000602082019050818103600083015262000b3b8162000af9565b9050919050565b62000b4d8162000668565b82525050565b600060208201905062000b6a600083018462000b42565b92915050565b7f4e487b7100000000000000000000000000000000000000000000000000000000600052602260045260246000fd5b6000600282049050600182168062000bb857607f821691505b6020821081141562000bcf5762000bce62000b70565b5b50919050565b6080516136cb62000bf16000396000610c1701526136cb6000f3fe608060405234801561001057600080fd5b50600436106101a95760003560e01c806339509351116100f9578063a457c2d711610097578063d539139311610071578063d53913931461051a578063d547741f14610538578063dd62ed3e14610554578063e9c4aa6a14610584576101a9565b8063a457c2d71461049e578063a9059cbb146104ce578063ae169a50146104fe576101a9565b806370a08231116100d357806370a082311461040257806391d148541461043257806395d89b4114610462578063a217fddf14610480576101a9565b8063395093511461039a5780633fd30e6f146103ca57806352491d77146103e6576101a9565b8063245fc1ba116101665780632f2ff15d116101405780632f2ff15d14610326578063313ce56714610342578063355274ea1461036057806336568abe1461037e576101a9565b8063245fc1ba146102aa578063248a9ca3146102da5780632e17de781461030a576101a9565b806301ffc9a7146101ae57806306fdde03146101de578063095ea7b3146101fc57806318160ddd1461022c5780631852e8d91461024a57806323b872dd1461027a575b600080fd5b6101c860048036038101906101c391906123cc565b6105b6565b6040516101d59190612414565b60405180910390f35b6101e6610630565b6040516101f391906124c8565b60405180910390f35b6102166004803603810190610211919061257e565b6106c2565b6040516102239190612414565b60405180910390f35b6102346106e5565b60405161024191906125cd565b60405180910390f35b610264600480360381019061025f919061257e565b6106ef565b60405161027191906125cd565b60405180910390f35b610294600480360381019061028f91906125e8565b6108ae565b6040516102a19190612414565b60405180910390f35b6102c460048036038101906102bf919061257e565b6108dd565b6040516102d19190612414565b60405180910390f35b6102f460048036038101906102ef9190612671565b61093d565b60405161030191906126ad565b60405180910390f35b610324600480360381019061031f91906126c8565b61095d565b005b610340600480360381019061033b91906126f5565b610be9565b005b61034a610c0a565b6040516103579190612751565b60405180910390f35b610368610c13565b60405161037591906125cd565b60405180910390f35b610398600480360381019061039391906126f5565b610c3b565b005b6103b460048036038101906103af919061257e565b610cbe565b6040516103c19190612414565b60405180910390f35b6103e460048036038101906103df91906127a7565b610cf5565b005b61040060048036038101906103fb919061257e565b610fa8565b005b61041c600480360381019061041791906127fa565b610fe1565b60405161042991906125cd565b60405180910390f35b61044c600480360381019061044791906126f5565b611029565b6040516104599190612414565b60405180910390f35b61046a611094565b60405161047791906124c8565b60405180910390f35b610488611126565b60405161049591906126ad565b60405180910390f35b6104b860048036038101906104b3919061257e565b61112d565b6040516104c59190612414565b60405180910390f35b6104e860048036038101906104e3919061257e565b6111a4565b6040516104f59190612414565b60405180910390f35b610518600480360381019061051391906126c8565b6111c7565b005b61052261138f565b60405161052f91906126ad565b60405180910390f35b610552600480360381019061054d91906126f5565b6113b3565b005b61056e60048036038101906105699190612827565b6113d4565b60405161057b91906125cd565b60405180910390f35b61059e600480360381019061059991906126c8565b61145b565b6040516105ad93929190612876565b60405180910390f35b60007f7965db0b000000000000000000000000000000000000000000000000000000007bffffffffffffffffffffffffffffffffffffffffffffffffffffffff1916827bffffffffffffffffffffffffffffffffffffffffffffffffffffffff1916148061062957506106288261171d565b5b9050919050565b60606003805461063f906128dc565b80601f016020809104026020016040519081016040528092919081815260200182805461066b906128dc565b80156106b85780601f1061068d576101008083540402835291602001916106b8565b820191906000526020600020905b81548152906001019060200180831161069b57829003601f168201915b5050505050905090565b6000806106cd611787565b90506106da81858561178f565b600191505092915050565b6000600254905090565b600060b4821480610701575061016882145b8061070d575061021c82145b61074c576040517f08c379a00000000000000000000000000000000000000000000000000000000081526004016107439061295a565b60405180910390fd5b61075683836108dd565b610795576040517f08c379a000000000000000000000000000000000000000000000000000000000815260040161078c906129c6565b60405180910390fd5b6000600660008573ffffffffffffffffffffffffffffffffffffffff1673ffffffffffffffffffffffffffffffffffffffff168152602001908152602001600020600084815260200190815260200160002060405180606001604052908160008201548152602001600182015481526020016002820160009054906101000a900462ffffff1662ffffff1662ffffff16815250509050600061084482602001514261195a90919063ffffffff16565b905060006108a061271061089287610884876040015162ffffff16610876888a6000015161197090919063ffffffff16565b61197090919063ffffffff16565b61198690919063ffffffff16565b61198690919063ffffffff16565b905080935050505092915050565b6000806108b9611787565b90506108c685828561199c565b6108d1858585611a28565b60019150509392505050565b600080600660008573ffffffffffffffffffffffffffffffffffffffff1673ffffffffffffffffffffffffffffffffffffffff16815260200190815260200160002060008481526020019081526020016000206000015411905092915050565b600060056000838152602001908152602001600020600101549050919050565b8060b481148061096e575061016881145b8061097a575061021c81145b6109b9576040517f08c379a00000000000000000000000000000000000000000000000000000000081526004016109b09061295a565b60405180910390fd5b6109c333836108dd565b610a02576040517f08c379a00000000000000000000000000000000000000000000000000000000081526004016109f9906129c6565b60405180910390fd5b6000600183610a119190612a15565b90506000600660003373ffffffffffffffffffffffffffffffffffffffff1673ffffffffffffffffffffffffffffffffffffffff168152602001908152602001600020600085815260200190815260200160002060405180606001604052908160008201548152602001600182015481526020016002820160009054906101000a900462ffffff1662ffffff1662ffffff168152505090506000610ac282602001514261195a90919063ffffffff16565b905082811015610adf57610ada33836000015161155c565b610b0f565b6000610aeb33876106ef565b9050610b0d33610b08838660000151611ca090919063ffffffff16565b61155c565b505b600660003373ffffffffffffffffffffffffffffffffffffffff1673ffffffffffffffffffffffffffffffffffffffff168152602001908152602001600020600086815260200190815260200160002060008082016000905560018201600090556002820160006101000a81549062ffffff021916905550503373ffffffffffffffffffffffffffffffffffffffff167fc058b44d1942657ed6debceca51be61272dcb68931b8cf54dd328a55adfa185a8360000151878560400151604051610bda93929190612876565b60405180910390a25050505050565b610bf28261093d565b610bfb81611cb6565b610c058383611cca565b505050565b60006012905090565b60007f0000000000000000000000000000000000000000000000000000000000000000905090565b610c43611787565b73ffffffffffffffffffffffffffffffffffffffff168173ffffffffffffffffffffffffffffffffffffffff1614610cb0576040517f08c379a0000000000000000000000000000000000000000000000000000000008152600401610ca790612ae1565b60405180910390fd5b610cba8282611dab565b5050565b600080610cc9611787565b9050610cea818585610cdb85896113d4565b610ce59190612b01565b61178f565b600191505092915050565b8160b4811480610d06575061016881145b80610d12575061021c81145b610d51576040517f08c379a0000000000000000000000000000000000000000000000000000000008152600401610d489061295a565b60405180910390fd5b600084905060008111610d99576040517f08c379a0000000000000000000000000000000000000000000000000000000008152600401610d9090612ba3565b60405180910390fd5b60008362ffffff1611610de1576040517f08c379a0000000000000000000000000000000000000000000000000000000008152600401610dd890612c35565b60405180910390fd5b6127108362ffffff161115610e2b576040517f08c379a0000000000000000000000000000000000000000000000000000000008152600401610e2290612cc7565b60405180910390fd5b610e3433610fe1565b811115610e76576040517f08c379a0000000000000000000000000000000000000000000000000000000008152600401610e6d90612d33565b60405180910390fd5b6000600660003373ffffffffffffffffffffffffffffffffffffffff1673ffffffffffffffffffffffffffffffffffffffff168152602001908152602001600020600086815260200190815260200160002090506000816000015414610f11576040517f08c379a0000000000000000000000000000000000000000000000000000000008152600401610f0890612d9f565b60405180910390fd5b610f1b3387611e8d565b818160000181905550428160010181905550838160020160006101000a81548162ffffff021916908362ffffff1602179055503373ffffffffffffffffffffffffffffffffffffffff167f96520f6e8d6ca0a9b53dda6a1db194c5ed91393da09a654ada5e1809cbd264e5838787604051610f9893929190612876565b60405180910390a2505050505050565b7f9f2df0fed2c77648de5860a4cc508cd0818c85b8b8a1ab4ceeef8d981c8956a6610fd281611cb6565b610fdc8383611e9b565b505050565b60008060008373ffffffffffffffffffffffffffffffffffffffff1673ffffffffffffffffffffffffffffffffffffffff168152602001908152602001600020549050919050565b60006005600084815260200190815260200160002060000160008373ffffffffffffffffffffffffffffffffffffffff1673ffffffffffffffffffffffffffffffffffffffff16815260200190815260200160002060009054906101000a900460ff16905092915050565b6060600480546110a3906128dc565b80601f01602080910402602001604051908101604052809291908181526020018280546110cf906128dc565b801561111c5780601f106110f15761010080835404028352916020019161111c565b820191906000526020600020905b8154815290600101906020018083116110ff57829003601f168201915b5050505050905090565b6000801b81565b600080611138611787565b9050600061114682866113d4565b90508381101561118b576040517f08c379a000000000000000000000000000000000000000000000000000000000815260040161118290612e31565b60405180910390fd5b611198828686840361178f565b60019250505092915050565b6000806111af611787565b90506111bc818585611a28565b600191505092915050565b8060b48114806111d8575061016881145b806111e4575061021c81145b611223576040517f08c379a000000000000000000000000000000000000000000000000000000000815260040161121a9061295a565b60405180910390fd5b61122d33836108dd565b61126c576040517f08c379a0000000000000000000000000000000000000000000000000000000008152600401611263906129c6565b60405180910390fd5b600061127833846106ef565b9050600081116112bd576040517f08c379a00000000000000000000000000000000000000000000000000000000081526004016112b490612e9d565b60405180910390fd5b6112c7338261155c565b6000600660003373ffffffffffffffffffffffffffffffffffffffff1673ffffffffffffffffffffffffffffffffffffffff168152602001908152602001600020600085815260200190815260200160002090504281600101819055503373ffffffffffffffffffffffffffffffffffffffff167f4ff7c25afc6a684d8973dc0248248b0aceaf353581d14e1091c5abcb568fda0e83868460020160009054906101000a900462ffffff1660405161138193929190612876565b60405180910390a250505050565b7f9f2df0fed2c77648de5860a4cc508cd0818c85b8b8a1ab4ceeef8d981c8956a681565b6113bc8261093d565b6113c581611cb6565b6113cf8383611dab565b505050565b6000600160008473ffffffffffffffffffffffffffffffffffffffff1673ffffffffffffffffffffffffffffffffffffffff16815260200190815260200160002060008373ffffffffffffffffffffffffffffffffffffffff1673ffffffffffffffffffffffffffffffffffffffff16815260200190815260200160002054905092915050565b600080600061146a33856108dd565b6114a9576040517f08c379a00000000000000000000000000000000000000000000000000000000081526004016114a0906129c6565b60405180910390fd5b6000600660003373ffffffffffffffffffffffffffffffffffffffff1673ffffffffffffffffffffffffffffffffffffffff168152602001908152602001600020600086815260200190815260200160002060405180606001604052908160008201548152602001600182015481526020016002820160009054906101000a900462ffffff1662ffffff1662ffffff16815250509050806000015193508060200151925080604001519150509193909250565b611564610c13565b8161156d6106e5565b6115779190612b01565b11156115b8576040517f08c379a00000000000000000000000000000000000000000000000000000000081526004016115af90612f09565b60405180910390fd5b6115c282826115c6565b5050565b600073ffffffffffffffffffffffffffffffffffffffff168273ffffffffffffffffffffffffffffffffffffffff161415611636576040517f08c379a000000000000000000000000000000000000000000000000000000000815260040161162d90612f75565b60405180910390fd5b61164260008383611ea9565b80600260008282546116549190612b01565b92505081905550806000808473ffffffffffffffffffffffffffffffffffffffff1673ffffffffffffffffffffffffffffffffffffffff168152602001908152602001600020600082825401925050819055508173ffffffffffffffffffffffffffffffffffffffff16600073ffffffffffffffffffffffffffffffffffffffff167fddf252ad1be2c89b69c2b068fc378daa952ba7f163c4a11628f55a4df523b3ef8360405161170591906125cd565b60405180910390a361171960008383611eae565b5050565b60007f01ffc9a7000000000000000000000000000000000000000000000000000000007bffffffffffffffffffffffffffffffffffffffffffffffffffffffff1916827bffffffffffffffffffffffffffffffffffffffffffffffffffffffff1916149050919050565b600033905090565b600073ffffffffffffffffffffffffffffffffffffffff168373ffffffffffffffffffffffffffffffffffffffff1614156117ff576040517f08c379a00000000000000000000000000000000000000000000000000000000081526004016117f690613007565b60405180910390fd5b600073ffffffffffffffffffffffffffffffffffffffff168273ffffffffffffffffffffffffffffffffffffffff16141561186f576040517f08c379a000000000000000000000000000000000000000000000000000000000815260040161186690613099565b60405180910390fd5b80600160008573ffffffffffffffffffffffffffffffffffffffff1673ffffffffffffffffffffffffffffffffffffffff16815260200190815260200160002060008473ffffffffffffffffffffffffffffffffffffffff1673ffffffffffffffffffffffffffffffffffffffff168152602001908152602001600020819055508173ffffffffffffffffffffffffffffffffffffffff168373ffffffffffffffffffffffffffffffffffffffff167f8c5be1e5ebec7d5bd14f71427d1e84f3dd0314c0f7b2291e5b200ac8c7c3b9258360405161194d91906125cd565b60405180910390a3505050565b6000818361196891906130b9565b905092915050565b6000818361197e9190612a15565b905092915050565b60008183611994919061311c565b905092915050565b60006119a884846113d4565b90507fffffffffffffffffffffffffffffffffffffffffffffffffffffffffffffffff8114611a225781811015611a14576040517f08c379a0000000000000000000000000000000000000000000000000000000008152600401611a0b90613199565b60405180910390fd5b611a21848484840361178f565b5b50505050565b600073ffffffffffffffffffffffffffffffffffffffff168373ffffffffffffffffffffffffffffffffffffffff161415611a98576040517f08c379a0000000000000000000000000000000000000000000000000000000008152600401611a8f9061322b565b60405180910390fd5b600073ffffffffffffffffffffffffffffffffffffffff168273ffffffffffffffffffffffffffffffffffffffff161415611b08576040517f08c379a0000000000000000000000000000000000000000000000000000000008152600401611aff906132bd565b60405180910390fd5b611b13838383611ea9565b60008060008573ffffffffffffffffffffffffffffffffffffffff1673ffffffffffffffffffffffffffffffffffffffff16815260200190815260200160002054905081811015611b99576040517f08c379a0000000000000000000000000000000000000000000000000000000008152600401611b909061334f565b60405180910390fd5b8181036000808673ffffffffffffffffffffffffffffffffffffffff1673ffffffffffffffffffffffffffffffffffffffff16815260200190815260200160002081905550816000808573ffffffffffffffffffffffffffffffffffffffff1673ffffffffffffffffffffffffffffffffffffffff168152602001908152602001600020600082825401925050819055508273ffffffffffffffffffffffffffffffffffffffff168473ffffffffffffffffffffffffffffffffffffffff167fddf252ad1be2c89b69c2b068fc378daa952ba7f163c4a11628f55a4df523b3ef84604051611c8791906125cd565b60405180910390a3611c9a848484611eae565b50505050565b60008183611cae9190612b01565b905092915050565b611cc781611cc2611787565b611eb3565b50565b611cd48282611029565b611da75760016005600084815260200190815260200160002060000160008373ffffffffffffffffffffffffffffffffffffffff1673ffffffffffffffffffffffffffffffffffffffff16815260200190815260200160002060006101000a81548160ff021916908315150217905550611d4c611787565b73ffffffffffffffffffffffffffffffffffffffff168173ffffffffffffffffffffffffffffffffffffffff16837f2f8788117e7eff1d82e926ec794901d17c78024a50270940304540a733656f0d60405160405180910390a45b5050565b611db58282611029565b15611e895760006005600084815260200190815260200160002060000160008373ffffffffffffffffffffffffffffffffffffffff1673ffffffffffffffffffffffffffffffffffffffff16815260200190815260200160002060006101000a81548160ff021916908315150217905550611e2e611787565b73ffffffffffffffffffffffffffffffffffffffff168173ffffffffffffffffffffffffffffffffffffffff16837ff6391f5c32d9c69d2a47ea670b442974b53935d1edc7fd64eb21e047a839171b60405160405180910390a45b5050565b611e978282611f38565b5050565b611ea5828261155c565b5050565b505050565b505050565b611ebd8282611029565b611f3457611eca81612106565b611ed88360001c6020612133565b604051602001611ee9929190613443565b6040516020818303038152906040526040517f08c379a0000000000000000000000000000000000000000000000000000000008152600401611f2b91906124c8565b60405180910390fd5b5050565b600073ffffffffffffffffffffffffffffffffffffffff168273ffffffffffffffffffffffffffffffffffffffff161415611fa8576040517f08c379a0000000000000000000000000000000000000000000000000000000008152600401611f9f906134ef565b60405180910390fd5b611fb482600083611ea9565b60008060008473ffffffffffffffffffffffffffffffffffffffff1673ffffffffffffffffffffffffffffffffffffffff1681526020019081526020016000205490508181101561203a576040517f08c379a000000000000000000000000000000000000000000000000000000000815260040161203190613581565b60405180910390fd5b8181036000808573ffffffffffffffffffffffffffffffffffffffff1673ffffffffffffffffffffffffffffffffffffffff1681526020019081526020016000208190555081600260008282540392505081905550600073ffffffffffffffffffffffffffffffffffffffff168373ffffffffffffffffffffffffffffffffffffffff167fddf252ad1be2c89b69c2b068fc378daa952ba7f163c4a11628f55a4df523b3ef846040516120ed91906125cd565b60405180910390a361210183600084611eae565b505050565b606061212c8273ffffffffffffffffffffffffffffffffffffffff16601460ff16612133565b9050919050565b6060600060028360026121469190612a15565b6121509190612b01565b67ffffffffffffffff811115612169576121686135a1565b5b6040519080825280601f01601f19166020018201604052801561219b5781602001600182028036833780820191505090505b5090507f3000000000000000000000000000000000000000000000000000000000000000816000815181106121d3576121d26135d0565b5b60200101907effffffffffffffffffffffffffffffffffffffffffffffffffffffffffffff1916908160001a9053507f780000000000000000000000000000000000000000000000000000000000000081600181518110612237576122366135d0565b5b60200101907effffffffffffffffffffffffffffffffffffffffffffffffffffffffffffff1916908160001a905350600060018460026122779190612a15565b6122819190612b01565b90505b6001811115612321577f3031323334353637383961626364656600000000000000000000000000000000600f8616601081106122c3576122c26135d0565b5b1a60f81b8282815181106122da576122d96135d0565b5b60200101907effffffffffffffffffffffffffffffffffffffffffffffffffffffffffffff1916908160001a905350600485901c94508061231a906135ff565b9050612284565b5060008414612365576040517f08c379a000000000000000000000000000000000000000000000000000000000815260040161235c90613675565b60405180910390fd5b8091505092915050565b600080fd5b60007fffffffff0000000000000000000000000000000000000000000000000000000082169050919050565b6123a981612374565b81146123b457600080fd5b50565b6000813590506123c6816123a0565b92915050565b6000602082840312156123e2576123e161236f565b5b60006123f0848285016123b7565b91505092915050565b60008115159050919050565b61240e816123f9565b82525050565b60006020820190506124296000830184612405565b92915050565b600081519050919050565b600082825260208201905092915050565b60005b8381101561246957808201518184015260208101905061244e565b83811115612478576000848401525b50505050565b6000601f19601f8301169050919050565b600061249a8261242f565b6124a4818561243a565b93506124b481856020860161244b565b6124bd8161247e565b840191505092915050565b600060208201905081810360008301526124e2818461248f565b905092915050565b600073ffffffffffffffffffffffffffffffffffffffff82169050919050565b6000612515826124ea565b9050919050565b6125258161250a565b811461253057600080fd5b50565b6000813590506125428161251c565b92915050565b6000819050919050565b61255b81612548565b811461256657600080fd5b50565b60008135905061257881612552565b92915050565b600080604083850312156125955761259461236f565b5b60006125a385828601612533565b92505060206125b485828601612569565b9150509250929050565b6125c781612548565b82525050565b60006020820190506125e260008301846125be565b92915050565b6000806000606084860312156126015761260061236f565b5b600061260f86828701612533565b935050602061262086828701612533565b925050604061263186828701612569565b9150509250925092565b6000819050919050565b61264e8161263b565b811461265957600080fd5b50565b60008135905061266b81612645565b92915050565b6000602082840312156126875761268661236f565b5b60006126958482850161265c565b91505092915050565b6126a78161263b565b82525050565b60006020820190506126c2600083018461269e565b92915050565b6000602082840312156126de576126dd61236f565b5b60006126ec84828501612569565b91505092915050565b6000806040838503121561270c5761270b61236f565b5b600061271a8582860161265c565b925050602061272b85828601612533565b9150509250929050565b600060ff82169050919050565b61274b81612735565b82525050565b60006020820190506127666000830184612742565b92915050565b600062ffffff82169050919050565b6127848161276c565b811461278f57600080fd5b50565b6000813590506127a18161277b565b92915050565b6000806000606084860312156127c0576127bf61236f565b5b60006127ce86828701612569565b93505060206127df86828701612569565b92505060406127f086828701612792565b9150509250925092565b6000602082840312156128105761280f61236f565b5b600061281e84828501612533565b91505092915050565b6000806040838503121561283e5761283d61236f565b5b600061284c85828601612533565b925050602061285d85828601612533565b9150509250929050565b6128708161276c565b82525050565b600060608201905061288b60008301866125be565b61289860208301856125be565b6128a56040830184612867565b949350505050565b7f4e487b7100000000000000000000000000000000000000000000000000000000600052602260045260246000fd5b600060028204905060018216806128f457607f821691505b60208210811415612908576129076128ad565b5b50919050565b7f496e76616c6964206475726174696f6e00000000000000000000000000000000600082015250565b600061294460108361243a565b915061294f8261290e565b602082019050919050565b6000602082019050818103600083015261297381612937565b9050919050565b7f4e6f207374616b696e6720666f756e6400000000000000000000000000000000600082015250565b60006129b060108361243a565b91506129bb8261297a565b602082019050919050565b600060208201905081810360008301526129df816129a3565b9050919050565b7f4e487b7100000000000000000000000000000000000000000000000000000000600052601160045260246000fd5b6000612a2082612548565b9150612a2b83612548565b9250817fffffffffffffffffffffffffffffffffffffffffffffffffffffffffffffffff0483118215151615612a6457612a636129e6565b5b828202905092915050565b7f416363657373436f6e74726f6c3a2063616e206f6e6c792072656e6f756e636560008201527f20726f6c657320666f722073656c660000000000000000000000000000000000602082015250565b6000612acb602f8361243a565b9150612ad682612a6f565b604082019050919050565b60006020820190508181036000830152612afa81612abe565b9050919050565b6000612b0c82612548565b9150612b1783612548565b9250827fffffffffffffffffffffffffffffffffffffffffffffffffffffffffffffffff03821115612b4c57612b4b6129e6565b5b828201905092915050565b7f416d6f756e74206d7573742062652067726561746572207468616e2030000000600082015250565b6000612b8d601d8361243a565b9150612b9882612b57565b602082019050919050565b60006020820190508181036000830152612bbc81612b80565b9050919050565b7f5265776172642072617465206d7573742062652067726561746572207468616e60008201527f2030000000000000000000000000000000000000000000000000000000000000602082015250565b6000612c1f60228361243a565b9150612c2a82612bc3565b604082019050919050565b60006020820190508181036000830152612c4e81612c12565b9050919050565b7f5265776172642072617465206d757374206265206c657373207468616e20313060008201527f3030300000000000000000000000000000000000000000000000000000000000602082015250565b6000612cb160238361243a565b9150612cbc82612c55565b604082019050919050565b60006020820190508181036000830152612ce081612ca4565b9050919050565b7f496e73756666696369656e742062616c616e6365000000000000000000000000600082015250565b6000612d1d60148361243a565b9150612d2882612ce7565b602082019050919050565b60006020820190508181036000830152612d4c81612d10565b9050919050565b7f416c7265616479207374616b6564000000000000000000000000000000000000600082015250565b6000612d89600e8361243a565b9150612d9482612d53565b602082019050919050565b60006020820190508181036000830152612db881612d7c565b9050919050565b7f45524332303a2064656372656173656420616c6c6f77616e63652062656c6f7760008201527f207a65726f000000000000000000000000000000000000000000000000000000602082015250565b6000612e1b60258361243a565b9150612e2682612dbf565b604082019050919050565b60006020820190508181036000830152612e4a81612e0e565b9050919050565b7f4e6f2072657761726420746f20636c61696d0000000000000000000000000000600082015250565b6000612e8760128361243a565b9150612e9282612e51565b602082019050919050565b60006020820190508181036000830152612eb681612e7a565b9050919050565b7f45524332304361707065643a2063617020657863656564656400000000000000600082015250565b6000612ef360198361243a565b9150612efe82612ebd565b602082019050919050565b60006020820190508181036000830152612f2281612ee6565b9050919050565b7f45524332303a206d696e7420746f20746865207a65726f206164647265737300600082015250565b6000612f5f601f8361243a565b9150612f6a82612f29565b602082019050919050565b60006020820190508181036000830152612f8e81612f52565b9050919050565b7f45524332303a20617070726f76652066726f6d20746865207a65726f2061646460008201527f7265737300000000000000000000000000000000000000000000000000000000602082015250565b6000612ff160248361243a565b9150612ffc82612f95565b604082019050919050565b6000602082019050818103600083015261302081612fe4565b9050919050565b7f45524332303a20617070726f766520746f20746865207a65726f20616464726560008201527f7373000000000000000000000000000000000000000000000000000000000000602082015250565b600061308360228361243a565b915061308e82613027565b604082019050919050565b600060208201905081810360008301526130b281613076565b9050919050565b60006130c482612548565b91506130cf83612548565b9250828210156130e2576130e16129e6565b5b828203905092915050565b7f4e487b7100000000000000000000000000000000000000000000000000000000600052601260045260246000fd5b600061312782612548565b915061313283612548565b925082613142576131416130ed565b5b828204905092915050565b7f45524332303a20696e73756666696369656e7420616c6c6f77616e6365000000600082015250565b6000613183601d8361243a565b915061318e8261314d565b602082019050919050565b600060208201905081810360008301526131b281613176565b9050919050565b7f45524332303a207472616e736665722066726f6d20746865207a65726f20616460008201527f6472657373000000000000000000000000000000000000000000000000000000602082015250565b600061321560258361243a565b9150613220826131b9565b604082019050919050565b6000602082019050818103600083015261324481613208565b9050919050565b7f45524332303a207472616e7366657220746f20746865207a65726f206164647260008201527f6573730000000000000000000000000000000000000000000000000000000000602082015250565b60006132a760238361243a565b91506132b28261324b565b604082019050919050565b600060208201905081810360008301526132d68161329a565b9050919050565b7f45524332303a207472616e7366657220616d6f756e742065786365656473206260008201527f616c616e63650000000000000000000000000000000000000000000000000000602082015250565b600061333960268361243a565b9150613344826132dd565b604082019050919050565b600060208201905081810360008301526133688161332c565b9050919050565b600081905092915050565b7f416363657373436f6e74726f6c3a206163636f756e7420000000000000000000600082015250565b60006133b060178361336f565b91506133bb8261337a565b601782019050919050565b60006133d18261242f565b6133db818561336f565b93506133eb81856020860161244b565b80840191505092915050565b7f206973206d697373696e6720726f6c6520000000000000000000000000000000600082015250565b600061342d60118361336f565b9150613438826133f7565b601182019050919050565b600061344e826133a3565b915061345a82856133c6565b915061346582613420565b915061347182846133c6565b91508190509392505050565b7f45524332303a206275726e2066726f6d20746865207a65726f2061646472657360008201527f7300000000000000000000000000000000000000000000000000000000000000602082015250565b60006134d960218361243a565b91506134e48261347d565b604082019050919050565b60006020820190508181036000830152613508816134cc565b9050919050565b7f45524332303a206275726e20616d6f756e7420657863656564732062616c616e60008201527f6365000000000000000000000000000000000000000000000000000000000000602082015250565b600061356b60228361243a565b91506135768261350f565b604082019050919050565b6000602082019050818103600083015261359a8161355e565b9050919050565b7f4e487b7100000000000000000000000000000000000000000000000000000000600052604160045260246000fd5b7f4e487b7100000000000000000000000000000000000000000000000000000000600052603260045260246000fd5b600061360a82612548565b9150600082141561361e5761361d6129e6565b5b600182039050919050565b7f537472696e67733a20686578206c656e67746820696e73756666696369656e74600082015250565b600061365f60208361243a565b915061366a82613629565b602082019050919050565b6000602082019050818103600083015261368e81613652565b905091905056fea2646970667358221220f96d9ce9690301b9293f511a296b79b3b3443ed700b5b19c9ae83df898997cfd64736f6c63430008090033",
  "linkReferences": {},
  "deployedLinkReferences": {}
}